:020000040800F2
:10000000780400209D010008470A00083F0A000804
:10001000430A000829070008EF120008000000004A
:10002000000000000000000000000000A50E000815
:100030002D07000800000000010B0008D50F000884
:10004000B7010008B7010008B7010008B7010008B0
:10005000B7010008B7010008B7010008B7010008A0
:10006000B7010008B7010008B7010008B701000890
:10007000B7010008B7010008B7010008B701000880
:10008000B7010008B7010008B7010008B701000870
:10009000B7010008B7010008B701000849070008C8
:1000A000B7010008B7010008B7010008B701000850
:1000B000B7010008B7010008B7010008B701000840
:1000C000B7010008B7010008B7010008B701000830
:1000D000B701000809110008B7010008B7010008BE
:1000E000B7010008B7010008B7010008B701000810
:1000F000B7010008B7010008B7010008B701000800
:10010000B7010008B7010008B7010008B7010008EF
:10011000B7010008B7010008B7010008B7010008DF
:10012000B7010008B7010008B7010008B7010008CF
:10013000B7010008B7010008B7010008B7010008BF
:10014000B7010008B7010008B7010008B7010008AF
:10015000B7010008B7010008B7010008B70100089F
:10016000B7010008B7010008B7010008B70100088F
:10017000B7010008B7010008B7010008B70100087F
:10018000B7010008B7010008DFF80CD000F0AAFAA8
:1001900000480047251E00087804002006488047D4
:1001A00006480047FEE7FEE7FEE7FEE7FEE7FEE75C
:1001B000FEE7FEE7FEE7FEE7DD0F00088901000825
:1001C0002DE9FE4F804681EA0300C00F0C460090E7
:1001D00021F0004123F00045B8EB0200A94105D20F
:1001E0004046214690461C460B46024623F00040FE
:1001F000104347D0270DC7F30A00C3F30A510290FA
:10020000401A019040286BDAC3F3130040F4801BBE
:100210000098924620B10023D2EB030A63EB0B0B4C
:1002200001985946C0F14002504600F0C4F9064614
:100230000D4650465946019A00F0CCF910EB0800E3
:100240006141002487EA115284EAE7731A4340D0DF
:10025000009A62B3019A012A4FEA075215DC001B8B
:1002600061EB02014FF0004202EA0752CDE9004281
:10027000001C41F5801132462B4600F0CCF903B04A
:10028000BDE8F08F40462146F9E7001B61EB020113
:10029000001C41F5801300185B412018A2F50017DF
:1002A00047EB030140EAD570B6196D4111E06D08C6
:1002B0004FEA360645EAC0754FEA0752001B61EB6C
:1002C0000201001C41F5801149084FEA3000001975
:1002D000514132462B4603B0BDE8F04F00F08CB9D7
:1002E0000098012240000023D0EB020263EBE07390
:1002F000009821464FEAE074B8EB000061EB04017E
:10030000E9E783F000435BE781F0004158E72DE91E
:10031000FE4F81EA030404F0004421F00041009400
:100320004FF0000B23F0004350EA01045ED052EA84
:1003300003045BD0C3F30A54C1F30A552C44A4F25E
:10034000F3340194A0FB0254C1F3130141F4801172
:10035000C3F3130343F4801301FB024400FB034E79
:10036000840A970A44EA815447EA8357A4FB076842
:1003700002958D0A05FB07854FEA932C04FB0C546C
:100380002705029D4FEA065847EA1637B5EB0805E0
:100390006EEB070C870E920E47EA811742EA831232
:1003A000A7FB0201B6EB0B0164EB00042B0D43EA43
:1003B0000C335E1844EB1C50DA465146E7FB020151
:1003C000C5F313044FEA0B3343EA14534FEA0432E4
:1003D000019C43EA0603A4F10C040294009CCDE9BD
:1003E00000B400F018F903B0BDE8F08F002001461A
:1003F000F9E72DE9F04D81EA030404F0004B21F008
:10040000004514464FF0000A23F0004150EA05026F
:1004100020D054EA01021DD0C5F30A570246C5F3A5
:100420001303C1F31300C1F30A5640F4801543F4DB
:100430008013A7EB0608101BD64608F2FD3873EBB5
:10044000050002D308F1010801E092185B41B8F100
:10045000000F03DA00200146BDE8F08D00204FF4C4
:100460008011064684460EE0171B73EB050705D383
:10047000121B63EB050306434CEA010C49084FEAE3
:10048000300092185B4150EA0107EDD152EA0300B7
:1004900012D082EA040083EA0501084305D0101B4C
:1004A000AB4106D20122002306E000224FF00043B8
:1004B00002E06FF0010253101AEB06004CEB0851FA
:1004C00010EB0A0041EB0B01BDE8F04D00F094B8D1
:1004D00000F0004230F000400AD0C10D01F560711B
:1004E000C0F3160042EA0151C208400711437047A9
:1004F000002001467047000030B5041E71F1000471
:1005000004DB4FF00044404264EB0101141E73F120
:10051000000405DB1C464FF00043524263EB04032A
:10052000994208BF904230BD30B50B4601460020CD
:100530002022012409E021FA02F59D4205D303FAA5
:1005400002F5491B04FA02F52844151EA2F1010226
:10055000F1DC30BD2DE9F05F0546002092469B4658
:1005600088460646814640241BE0284641464746C9
:10057000224600F0C9F853465A46C01A914110D39A
:1005800011461846224600F016F82D1A67EB0108AE
:100590004F4622460120002100F00DF817EB00091C
:1005A0004E41201EA4F10104DFDC484631462A46B4
:1005B0004346BDE8F09F202A04DB203A00FA02F10E
:1005C000002070479140C2F1200320FA03F3194341
:1005D00090407047202A06DBCB17203A41FA02F000
:1005E00043EAE07306E041FA02F3D040C2F1200290
:1005F000914008431946704710B5141E73F100046A
:1006000008DA401C41F1000192185B411A4301D104
:1006100020F0010010BD2DE9F04D92469B4611B12E
:10062000B1FA81F202E0B0FA80F220329046FFF790
:10063000C2FF04460F4640EA0A0041EA0B01534656
:100640005A46084313D0114653EA010019D0C8F1A5
:100650004002504600F058F805460E4650465946AE
:100660004246FFF7A8FF084305D0012004E02046DA
:100670003946BDE8F08D0020054346EAE0762C437C
:1006800037430A986305E40AA0EB08000022FD0A3C
:1006900044EA47540A3002D500200146E9E7010543
:1006A00010196941DDE9084500196941BDE8F04DBF
:1006B000A2E7C1F30A52C1F3130140F2FF3341F440
:1006C00080119A4202DA00200146704740F233431B
:1006D0009A42A2F2334202DC524200F015B8FFF710
:1006E0006ABF0000064C074D06E0E06840F00103D9
:1006F00094E8070098471034AC42F6D3FFF748FD62
:10070000801F0008A01F0008202A04DB203A21FADD
:1007100002F00021704721FA02F3D040C2F120021A
:10072000914008431946704700BFFEE7704700003C
:1007300001B504490098086000BF0248006800281D
:10074000FBD108BD1400002010B5402000F06CF86B
:10075000D0B3402000F050F84FF400711B4800F077
:100760006AF91B4A1B491C4801F04AFA4FF4007110
:10077000164800F062F919480088401C17490880A3
:10078000144890ED000A164880ED000A114890EDDB
:10079000010A144880ED000A0E4890ED020A124842
:1007A00080ED000A0C4890ED000A104880ED000A28
:1007B000094890ED010A0E4880ED000A064890EDC8
:1007C000020A0C4880ED000A10BD0000000802403B
:1007D0001C000020680000205C00002008000020B1
:1007E0002C000020300000203400002020000020D9
:1007F0002400002028000020014908607047000004
:10080000143C01401CB50621022000F04DFB4020A5
:10081000009000208DF8040008208DF8050068463F
:1008200000F00EF81CBD000001460020034A1268CB
:100830000A400AB1012000E000207047143C01404A
:10084000002123498279002A3AD00A4612680368B7
:100850009A430B461A600A1D126803689A430B1DDF
:100860001A60027911440A6803681A430A60184A38
:100870000832126803689A43154B08331A601A1D30
:10088000126803689A43124B0C331A604279102A9B
:100890000ED11A1F126803681A430D4B08331A60F1
:1008A0001A1D126803681A43094B0C331A600DE0D5
:1008B0000749427911440A6803681A430A6005E04F
:1008C000027911440A6803689A430A60704700007D
:1008D000003C01401CB50121042000F013F94FF445
:1008E0008070009001208DF8040000208DF8060033
:1008F00003208DF805006946174800F031F84FF4E1
:100900000070009001208DF8040000208DF8060092
:1009100003208DF8050069460F4800F021F84FF4D8
:100920008050009001208DF8040000208DF8060012
:1009300002208DF805006946084800F011F84020B3
:10094000009000208DF804008DF8070069460248E9
:1009500000F006F81CBD0000000802400004024040
:10096000F0B50A4600210023002400BF3DE0012528
:1009700005FA01F3156805EA03049C4234D10568C1
:100980004F000326BE40B543056015794E00B540C3
:100990000668354305601579012D02D01579022DC1
:1009A00016D185684F000326BE40B5438560557952
:1009B0004E00B540866835438560456801268E4007
:1009C000B5434560456896798E40B6B2354345607B
:1009D000C5684F000326BE40B543C560D5794E00BB
:1009E000B540C6683543C560491C1029BFD3F0BD6A
:1009F000F0B5002300244D07ED0E02FA05F3CE10EA
:100A000000F1200555F826504E07F70E0F26BE4080
:100A1000B543CF1000F1200646F82750CE1000F164
:100A2000200555F8265045EA0304CE1000F12005B4
:100A300045F82640F0BD418370470183704700BFF1
:100A4000FEE700BFFEE7704708B517208DF80000ED
:100A500000208DF801008DF8020001208DF80300C0
:100A6000684600F011F825208DF8000001208DF86F
:100A7000010000208DF8020001208DF80300684677
:100A800000F002F808BD000070B5002100230F221D
:100A9000C4781CB3174C246804F4E064C4F5E06423
:100AA000C4F30721C1F10404E3B20A4144789C4035
:100AB000E1B28478144021430C07210E0E4C0578D6
:100AC0006155047804F01F050124AC4005786D11D0
:100AD000AD0005F1E025C5F8004109E0047804F017
:100AE0001F050124AC40054D0678761145F82640D7
:100AF00070BD00000CED00E000E400E080E100E0EB
:100B00007047000029B1064A12680243044B1A607C
:100B100004E0034A12688243014B1A6070470000E8
:100B20003038024029B1064A12680243044B1A6069
:100B300004E0034A12688243014B1A6070470000C8
:100B40004038024029B1064A12680243044B1A6039
:100B500004E0034A12688243014B1A6070470000A8
:100B60002038024029B1064A12680243044B1A6039
:100B700004E0034A12688243014B1A607047000088
:100B80004438024029B1064A12680243044B1A60F5
:100B900004E0034A12688243014B1A607047000068
:100BA0002438024010B501218803FFF7DBFF10BD98
:100BB000F0B5002100220024022500260223324F36
:100BC0003F6807F00C0121B1042905D0082937D16D
:100BD00005E02E4F076036E02D4F076033E02A4FC7
:100BE0003F1F3F68C7F38056274F3F1F3F6807F0FE
:100BF0003F036EB1264FB7FBF3F7DFF88CC0ACF1C3
:100C0000040CDCF800C0CCF3881C07FB0CF40CE0EF
:100C10001E4FB7FBF3F7DFF870C0ACF1040CDCF843
:100C200000C0CCF3881C07FB0CF4174F3F1F3F6834
:100C3000C7F301477F1C7D00B4FBF5F7076002E0B6
:100C4000124F076000BF00BF0F4F3F6807F0F00171
:100C50000909104F7A5C0768D74047600A4F3F6820
:100C600007F4E051890A0B4F7A5C4768D7408760E8
:100C7000054F3F6807F46041490B064F7A5C4768AF
:100C8000D740C760F0BD0000083802400024F400DF
:100C900000127A003800002021B1028842F04002A0
:100CA000028004E002884FF6BF731A40028070474A
:100CB00000B587B001210220FFF724FF012188033E
:100CC000FFF730FF02208DF818008DF81900002082
:100CD0008DF81A0001208DF81B0005220D212648F1
:100CE000FFF786FE4FF40050059005A92248FFF754
:100CF00037FE05220E212048FFF77AFE4FF4804090
:100D0000059005A91C48FFF72BFE05220F211A4864
:100D1000FFF76EFE4FF40040059005A91648FFF757
:100D20001FFE164800F02CF80020ADF800004FF42C
:100D30000060ADF804000220ADF806000120ADF817
:100D400008004002ADF80A001020ADF80C000020A9
:100D5000ADF80E000720ADF810004FF48270ADF82A
:100D600002006946054800F071F801210348FFF7C9
:100D700093FF07B000BD00000004024000380040AF
:100D800010B504462448844208D101218014FFF79D
:100D9000F9FE0021A014FFF7F5FE3CE01F48844255
:100DA00008D101210014FFF7CDFE00212014FFF728
:100DB000C9FE30E01A48844208D10121C013FFF770
:100DC000C1FE0021E013FFF7BDFE24E01548844278
:100DD00008D101214014FFF7D5FE00216014FFF770
:100DE000D1FE18E01048844209D101210805FFF71F
:100DF000C9FE00214FF48010FFF7C4FE0BE00B4842
:100E0000844208D101214805FFF7BCFE00214FF4C0
:100E10000010FFF7B7FE10BD003001400038004061
:100E2000003C0040003401400050014000540140AB
:100E30000246002013890B400BB1012000E0002086
:100E400070470146888970478181704710B500223C
:100E5000028802F441520B884C8823438C88234338
:100E6000CC8823430C8923434C8923438C89234317
:100E7000CC8923431A430280838B4FF2FF742340B3
:100E800083830B8A038210BD10B5FFF78BFE00F041
:100E9000E5F8FFF70DFFFFF71DFDFFF7D5FDFFF7A5
:100EA000B1FC10BD7047000030B500228B071C0F4D
:100EB0000F2303FA04F20B4B8C1053F824309343A6
:100EC000084C8D1044F8253023468C1053F82430FC
:100ED0008C07240F00FA04F42343024C8D1044F8CD
:100EE000253030BD083801400CB50020019000903D
:100EF0003448006840F480303249086000BF31480F
:100F0000006800F4003000900198401C01900098A7
:100F100018B90198B0F5A04FF1D12A48006800F443
:100F2000003010B10120009001E0002000900098F6
:100F3000012846D123484030006840F080502149C4
:100F4000403108602048006840F440401E49086075
:100F50001C48083000681B490831086008460068D2
:100F600040F4004008600846006840F4A050086063
:100F70001648091F0860081F006840F08070091FAC
:100F8000086000BF0F48006800F000700028F9D02A
:100F900040F205700E4908600A480830006820F0E9
:100FA00003000849083108600846006840F0020064
:100FB000086000BF03480830006800F00C000828F3
:100FC000F8D10CBD003802400070004008544007C2
:100FD000003C024010B500F035F810BD10B51548C2
:100FE000006840F47000134908601348006840F03E
:100FF00001001149086000200F49083108600E48BF
:1010000000680E4908400C4908600D48091D086039
:10101000081F006820F48020091F0860002006498E
:101020000C310860FFF760FF4FF000600149803924
:10103000086010BD88ED00E000380240FFFFF6FEBA
:10104000103000240448006820B103480068401EA6
:1010500001490860704700001400002000B587B007
:1010600001210846FFF74EFD01211020FFF77AFD10
:1010700000208DF80A0001208DF80B0002208DF869
:1010800008000002019003208DF8090001A91C4806
:10109000FFF766FC02208DF8080003208DF8090098
:1010A0004FF48060019001A91548FFF759FC072211
:1010B00009211348FFF79CFC07220A211048FFF77B
:1010C00097FC4FF4E13003900020ADF81000ADF82C
:1010D0001200ADF81400ADF818000C20ADF81600A1
:1010E00003A9084800F090F8012240F22551054874
:1010F00000F065F80121034800F01EF807B000BDBC
:10110000000002400010014010B540F2255108488F
:1011100000F02BF818B1064800F0E0F8C4B2FA2C41
:1011200004D1B7EE000A034880ED000A10BD0000AC
:10113000001001401800002021B1828942F40052C1
:10114000828104E082894DF6FF731A4082817047E4
:1011500002460020B1F5007F00D100BF13880B408C
:101160000BB1012000E00020704770B5024600245A
:1011700000230025002040F66A16B14200D100BFCE
:10118000C1F3421501F01F03012606FA03F3012DF6
:1011900002D19689334006E0022D02D1168A3340EF
:1011A00001E0968A33400C12012606FA04F41688F0
:1011B000344013B10CB1012000E0002070BDF0B547
:1011C0000346002400260025002040F66A17B94295
:1011D00000D100BF1846C1F3421401F01F060127D9
:1011E00007FA06F5012C01D10C3004E0022C01D1E4
:1011F000103000E014301AB107682F43076002E096
:101200000768AF430760F0BD2DE9FF4705460E466E
:101210000024A14600BFA046B08900B100BF2C8ABF
:1012200024F44054F08804432C82AC8941F20C60D1
:101230008443B08831890843718908430443AC81F1
:10124000AC8A24F44074B0890443AC826846FFF74A
:10125000AFFC2048854202D01F48854202D1DDF80C
:101260000C9001E0DDF80890A88900F4004040B13E
:1012700009EBC90000EB091031684900B0FBF1F738
:1012800007E009EBC90000EB091031688900B0FBE9
:10129000F1F76420B7FBF0F004012009642101FBA1
:1012A0001078A88900F4004040B1322000EBC8005B
:1012B000B0FBF1F000F00700044308E0322000EB3F
:1012C00008106421B0FBF1F000F00F0004432C8102
:1012D000BDE8FF87001001400014014001468888E6
:1012E000C0F308007047C1F308028280704700BF56
:1012F000FEE700000FB4054B10B503A9044A02989D
:1013000000F0CAF810BC5DF814FB0000011E0008D4
:101310004800002002E008C8121F08C1002AFAD1C4
:1013200070477047002001E001C1121F002AFBD165
:10133000704700002DE9FF5FDDE90220010DDDF8B7
:1013400038B0024318D044F61050A1F2FF314143A7
:101350000D140F98012820D0A5EB0B00401C5FEA6C
:10136000000A4FF00004474EDFF81C91A04650469B
:1013700016D5CAF1000728E00F98012443A20128DE
:1013800008D0002100980F9BC0E90021C0E902436A
:10139000BDE8FF9F6FEA0B01F4E7CBF10000DEE749
:1013A000074612E0F80707D0224633464046494632
:1013B000FEF7ADFF80468946224633461046194661
:1013C000FEF7A5FF04460E467F10002FEAD1DDE9A7
:1013D0000201BAF1000F42464B4602DAFEF797FFD0
:1013E00001E0FFF706F804460E460022284BFFF7FF
:1013F00083F803D84FF0FF30014607E00022254B69
:1014000020463146FEF7DCFEFFF753F9102409E0D1
:10141000002C0ADB0A220023FFF79CF8019B3032E4
:101420001A55641E50EA0102F2D1641C019AC4F1FB
:10143000110314440F9A012A03D0012208430DD14D
:101440000AE0084304D000204FF0110B0F9080E712
:10145000A3EB0B056D1E0DE05B4504DD4FF00002B4
:1014600005F1010504E003DA4FF00002A5F10105E2
:10147000002AECD000980F99C0E90231C0E900457C
:1014800086E70000000024400000F03F300000002C
:101490000000F0430000E03F2DE9FF4F95B09B4670
:1014A0008946064600250FE2252877D100242746E5
:1014B000F84A0121059400E0044316F8013F203B5F
:1014C00001FA03F01042F7D130782A2811D06FF0DA
:1014D0002F033078A0F13002092A16D8059A44F07B
:1014E000020402EB820203EB42021044761C0590D8
:1014F000EFE759F8042B0592002A03DA504244F42E
:101500000054059044F00204761C30782E2816D141
:1015100016F8010F44F004042A280DD06FF02F02B2
:101520003078A0F13003092B09D807EB870302EBD1
:101530004303C718761CF3E759F8047B761C307810
:101540006C280FD006DC4C2817D068280DD06A28EC
:1015500014D104E0742810D07A280FD10DE044F49F
:1015600000140AE044F4801401E044F4401472785A
:10157000824202D104F58014761C761C30786628ED
:101580000BD013DC582877D009DC002875D045280B
:10159000F6D04628F4D047281AD19DE118E06328F8
:1015A00035D0642879D0652812D195E1702873D0A0
:1015B00008DC6728F1D069286FD06E280DD06F281D
:1015C00006D1B5E073282CD0752875D0782874D052
:1015D0005A46179990476D1C75E1C4F302500228D2
:1015E00009D003280DD0D9F8001004280DD00D60C3
:1015F00009F1040967E1D9F80010EA17C1E90052BE
:10160000F6E7D9F800100D80F2E70D70F0E719F851
:10161000041B8DF8001000208DF80100EA4601201F
:1016200003E059F804AB4FF0FF3061074FF00001C1
:1016300002D40DE008F101018846B9420FDA804575
:10164000F8DB1AF808100029F4D108E008F10101CC
:1016500088468142FADB1AF808100029F6D105986D
:101660005B46A0EB080721463846179A00F094FA2B
:10167000284400EB080507E04DE029E10DE01AF8E9
:10168000010B5A4617999047B8F10108F7D25B460B
:1016900021463846179A13E142E00A220092C4F329
:1016A00002524FF0000A022A08D059F804CB032A4C
:1016B0004FEAEC710AD00DE029E02AE009F10701B8
:1016C00021F00702F2E802C1914609E00FFA8CFC12
:1016D0004FEAEC71042A03D14FFA8CFC4FEAEC710B
:1016E000002907DA0A460021DCF1000C61EB020157
:1016F0002D2202E0220504D52B228DF804200122A0
:1017000003E0E20701D02022F7E7904659E00A21E2
:1017100002E010220DE010214FF0000A00910BE0D2
:1017200010224FF0000A44F004040827009203E05E
:1017300008224FF0000A0092C4F30252022A05D098
:1017400059F804CB0021032A08D009E009F1070168
:1017500021F00702F2E802C1914605E01FFA8CFC75
:10176000042A01D10CF0FF0C4FF00008220728D505
:10177000702806D0009B83F0100353EA0A0305D0BB
:101780000EE040228DF80420012208E05CEA01020C
:1017900006D030228DF804208DF8050002229046F4
:1017A000009B83F0080353EA0A030AD15CEA0102B2
:1017B00001D1620705D530228DF804204FF00108D1
:1017C0007F1E582804D034A003900EA802900DE08C
:1017D00036A0F9E753466046009AFEF7BBFE844602
:1017E0000398825C0298401E029002705CEA01003D
:1017F000F0D1029806A9081A00F1200A600702D564
:1018000024F4803400E00127574502DDA7EB0A00ED
:1018100000E0002000EB0A01009005984144401AC6
:101820000590E00306D45B462146179A059800F020
:10183000B3F90544002706E001A85A46C05D179990
:1018400090476D1C7F1C4745F6DBE0030CD55B46DB
:101850002146179A059800F09FF9054404E03020CE
:101860005A46179990476D1C0099481E0090002910
:10187000F5DC08E0029802995A460078491C02916A
:10188000179990476D1CBAF10001AAF1010AF1DC29
:1018900065E1000009280100303132333435363734
:1018A00038396162636465660000000030313233AC
:1018B000343536373839414243444546000000004C
:1018C00000F058F90544761C307800287FF4ECAD20
:1018D00019B02846BDE8F08F620700D4062709F149
:1018E000070222F0070CFCE80223E14603F000485F
:1018F0005FEA080C02D00FF2702C0DE05FEA045C86
:1019000002D50FF2682C07E05FEAC47C02D00FF228
:10191000602C01E0AFF2700C4FF0FF3823F0004371
:10192000CDF850C065280CD006DC452809D04628E3
:101930001DD047283DD13DE0662818D067287ED1CC
:1019400038E00021112F01DB112000E0781CCDE9E7
:10195000000106A90EA8FFF7EDFCDDE90F010E9AC4
:1019600003910021009207F1010A04914DE04FF02C
:1019700000400097CDE9011006A90EA8FFF7DAFC98
:10198000DDE90F0203920E9B11990022DDF80CA0F5
:101990000093049211B9791C00EB010AB7EB0A001D
:1019A00004D4C0F1FF3007F1010A0490AAEB07004C
:1019B000019044E0012F00DA01270021112F01DD01
:1019C000112000E03846CDE9000106A90EA8FFF776
:1019D000B1FCDDE90F010E9A039100210491009200
:1019E000BA4621070CD40399514500DA8A46BAF168
:1019F000010F05DD009AAAF10101515C302908D0E0
:101A0000B84202DA10F1040F06DA0121CDE9011023
:101A100015E0AAF10101E9E7002805DC0499014479
:101A20000491AAEB000102E0411C514500DD8A4609
:101A30000499401A401C01904FF00040029020078A
:101A400004D40198504501DBCDF8048000208DF8C6
:101A50004F0002980DF14F07B0F1004F25D02B2019
:101A60000E9002984FF0020800280CDA40420290D3
:101A70002D200E9007E00A210298FEF755FD303127
:101A8000029007F8011DB8F10001A8F10108F2DC8D
:101A900002980028EFD1791E0E980870307800F077
:101AA000200040F0450007F8020D12A8C01B00F10D
:101AB00007081498007800B1012000EB0A01019892
:101AC00001EBE07105984144401A401E0590E00387
:101AD00006D45B462146179A059800F05DF8054448
:101AE0001498007818B15A46179990476D1CE00376
:101AF00024D55B462146179A059800F04DF8054419
:101B00001CE00498002807DBDDE90301884203DDBF
:101B10000098405C179901E0179930205A46904789
:101B2000049805F10105401C04900198401E0190A5
:101B300004D12E205A46179990476D1CBAF1000126
:101B4000AAF1010ADDDC05E017F8010B5A461799E6
:101B500090476D1CB8F10001A8F10108F4DC5B4668
:101B60002146179A0598ABE62D0000002B000000D7
:101B7000200000002DE9F041044600251E461746CE
:101B8000880404D405E039462020B0476D1C641E4B
:101B9000F9D52846BDE8F0812DE9F041044600253D
:101BA0001E469046C80301D5302700E02027880450
:101BB00004D505E041463846B0476D1C641EF9D592
:101BC0002846BDE8F081000070B5044600BF022140
:101BD0000A48FFF72DF90028F9D021460748FFF7FA
:101BE00033F900BF01210548FFF722F90028F9D099
:101BF0000248FFF726F90546284670BD0038004028
:101C00002DE9F84F04460D464FF480515D48FEF72C
:101C100012FF142000F0EEF84FF40060FFF7D4FF3D
:101C2000142000F0E7F84FF46060FFF7CDFF56494D
:101C30000880142000F0DEF84FF49050FFF7C4FF46
:101C40000090142000F0D6F84FF4B050FFF7BCFF1E
:101C50008146142000F0CEF84FF4D050FFF7B4FFC7
:101C60008246142000F0C6F84FF4F050FFF7ACFFA6
:101C70008346142000F0BEF84FF40850FFF7A4FF8D
:101C80000646142000F0B6F84FF41850FFF79CFFFA
:101C90000746142000F0AEF80020FFF795FF8046BD
:101CA0004FF480513748FEF7C8FE0FFA89F000EE76
:101CB000100AB8EEC00A85ED000A95ED000ADFEDC6
:101CC000330A20EE200A85ED000A0FFA8AF000EEB2
:101CD000100AB8EEC00A85ED010A95ED010ADFEDA4
:101CE0002B0A20EE200A85ED010A0FFA8BF000EE98
:101CF000100AB8EEC00A85ED020A95ED020ADFED82
:101D0000230A20EE200A85ED020A30B200EE100A06
:101D1000B8EEC00A84ED000A94ED000ADFED1C0A5B
:101D200020EE200ADFED1B0A20EE200A84ED000AD7
:101D300038B200EE100AB8EEC00A84ED010A94ED44
:101D4000010ADFED130A20EE200ADFED120A20EE71
:101D5000200A84ED010A0FFA88F000EE100AB8EEAE
:101D6000C00A84ED020A94ED020ADFED090A20EEB2
:101D7000200ADFED080A20EE200A84ED020ABDE801
:101D8000F88F0000000402400A000020F0C2563C18
:101D900017B7513F6F12833A70B504464FF4805124
:101DA0001248FEF748FE642000F024F800BF02212C
:101DB0000F48FFF73DF80028F9D021460C48FFF7FF
:101DC00043F800BF01210A48FFF732F80028F9D094
:101DD0000748FFF736F80546642000F00BF84FF48B
:101DE00080510248FEF729FE284670BD00040240DB
:101DF0000038004001E0411E88B20028FBDC70473B
:101E000070B504460D46E1B20548FFF76CFA00BF15
:101E100040210348FFF79CF90028F9D0204670BD07
:101E2000001001402DED068B84B0FFF72DF84248DD
:101E3000FEF7BEFE404840686422B0FBF2F1481E47
:101E4000B0F1807F00D31BE0481E4FF0E0225061CC
:101E500050170F22002807DA13071D0E374B00F02A
:101E60000F04241F1D5503E013071C0E344B1C5494
:101E700000BF00204FF0E02290610720106100BFFA
:101E80006420FEF755FC2FA0FFF734FA0020FFF77F
:101E900083FF2F490880084601882EA0FFF72AFA01
:101EA0004FF46060FFF778FF2949088008460188F1
:101EB00028A0FFF71FFA4FF48050FFF76DFF244969
:101EC00008800846018823A0FFF714FA4FF4FC406D
:101ED000FFF762FF1E490880084601881DA0FFF732
:101EE00009FA27E04FF480711D48FEF7A4FD1D4854
:101EF0000068FEF7EDFA41EC180B1B480068FEF78E
:101F0000E7FA41EC190B19480068FEF7E1FA41ECD9
:101F10001A0B8DED028B8DED009B53EC1A2B14A048
:101F2000FFF7E8F96420FEF703FC4FF480710C48DA
:101F3000FEF783FDD6E700004C00002018ED00E01E
:101F400000E400E05374617274210D0A0000000087
:101F5000120000207265673D25640D0A0000000034
:101F60000008024034000020300000202C00002037
:101F7000673D25662C25662C25660D0A00000000AD
:101F8000A01F0008000000204C00000014130008EF
:101F9000EC1F00084C0000202C0400002413000853
:101FA0000000000000000000000000000000000031
:101FB0000000000000000000000000000000000021
:101FC0000000000000000000000000000000000011
:101FD00000000000000000000000000001020304F7
:0C1FE000010203040607080900000000CD
:040000050800018965
:00000001FF
